wait=0,next=Y|8=FIX.4.4|9=125|35=R|34=5|49=BUY|52=20190212-08:29:05.170|56=SELL1|131=%{131}|146=1|55=N/A|48=N/A|22=4|107=ELN|350=7|351=<desc>||</desc>|54=1|10=217|
wait=0,next=N|8=FIX.4.4|9=125|35=R|34=6|49=BUY|52=20190212-08:29:05.170|56=SELL1|131=QRID-2|146=1|55=N/A|48=N/A|22=4|107=ELN|350=7|351=<desc>||</desc>|54=1|10=217|
